:100000000EC01BC0B0C019C018C017C016C015C0A4
:1000100014C013C012C011C010C00FC00EC01124F4
:100020001FBECFEDCDBF10E0A0E6B0E001C01D9235
:10003000A836B107E1F7C6D061C3E2CFC39AC4982E
:100040000895C49AC398089588B3877E88BB08959D
:10005000A1E0B0E0EDE2F0E010C311C08983EEDF73
:10006000E9E6F8E13197F1F700C00000EDDFE9E6DD
:10007000F8E13197F1F700C00000898181508823B1
:1000800069F72196E2E015C3A1E0B0E0E9E4F0E011
:10009000F4C211C08983D5DFE9E6F8E13197F1F7C1
:1000A00000C00000D1DFE9E6F8E13197F1F700C0C8
:1000B000000089818150882369F72196E2E0F9C226
:1000C000A1E0B0E0E5E6F0E0D8C211C08983B6DF78
:1000D000E3EDF0E33197F1F700C00000B2DFE3EDAC
:1000E000F0E33197F1F700C0000089818150882347
:1000F00069F7AADF2196E2E0DCC22DE020BD00977F
:1001000019F080B5826080BD089582E085BB80E2F1
:100110008BBF0895B9D10895A3E0B0E0E1E9F0E024
:10012000ACC289836A834B83CE01019663E06DD2B2
:100130002396E2E0BEC2A2E0B0E0E0EAF0E09BC2BB
:1001400089836A838E010F5F1F4FC80162E05DD211
:100150008981816089831A82C80162E056D28A81CE
:100160002296E4E0A4C21F920F920FB60F921124C0
:100170002F933F934F935F936F937F938F939F93AF
:10018000AF93BF93EF93FF9315D191E0811190E06E
:1001900090936500B19BFECFFF91EF91BF91AF911E
:1001A0009F918F917F916F915F914F913F912F918F
:1001B0000F900FBE0F901F901895809165001092C0
:1001C00065000895A3E0B0E0E7EEF0E052C287B327
:1001D000886187BBB998C19A9BD0FAD096DF0BC0D3
:1001E00084E06EDF8FE996E8A1E081509040A04066
:1001F000E1F700C000008ED0882391F30BC082E0AD
:1002000027DF8FE996E8A1E081509040A040E1F718
:1002100000C0000097D0882391F384E035DF81E0AF
:1002200090E052D2882341F182E090E04DD2182F25
:1002300083E090E049D2682F84E090E06B8344D261
:10024000482F85E090E04A833FD2282F86E090E057
:1002500029833AD2082F87E090E036D29FE0E92E3A
:10026000E80E812F6B814A8129817FD081E090E067
:1002700060E032D288E024DF88E090E025D2BED072
:100280008093630089E090E01FD2B8D0682F8093FC
:10029000640080916300DED080E09FD0789410E00D
:1002A00001C013E0D1DE81E090E027DF85B7877ED3
:1002B000806185BF85B7806285BF889585B78F7D52
:1002C00085BF80E090E019DF23D082E690E061E610
:1002D00070E040E650E09AD0809165001092650091
:1002E000133011F081E079D012E084E0F82EEE2492
:1002F0000DC00E1510F4A5DE01C0A6DE0150C9F731
:10030000EF0C11F4F1941150112359F200E0F6CFE3
:1003100001DF0895CF9380ED63E00DDFC82F8FE0FC
:1003200095E1A3E081509040A040E1F700C00000BB
:1003300080ED63E000DF91E08C1709F490E0892FF5
:10034000CF910895CF9380ED63E1F5DEC82FC95FAB
:1003500080ED63E14C2FE0DE80ED63E1ECDE91E0C7
:100360008C1390E0892FCF910895A1E0B0E0EAEBE3
:10037000F1E07FC1982FF62E142F80ED69E0492F10
:100380002983CADE80ED68E04F2DC6DE80ED66E091
:10039000412FC2DE80ED65E02981422FBDDE80ED78
:1003A00064E0402FB9DE80ED63E04E2DB5DE21968E
:1003B000E6E07BC180ED61E0BEDE84FF07C0482F30
:1003C0004F7E80ED61E0A8DE81E0089580E0089531
:1003D00080ED6FE048E3A0DE0895CF93C82F80ED55
:1003E00060E0A9DECC2319F0482F446002C0482FFA
:1003F0004B7F80ED60E090DECF910895982F82953D
:100400008F706AE015D19F70890F0895EF92FF9267
:100410000F931F93CF93DF937C01EB018A0180ED53
:1004200065E089DEEBDFF701808380ED64E083DE49
:10043000E5DF888380ED63E07EDEE0DFF801808326
:10044000CDB7DEB7E6E031C16AE0FBD08295807FB0
:10045000890F0895CF93C82F862FF6DF482F405875
:1004600080ED6AE059DE8C2FEFDF482F405880ED99
:100470006BE052DE80ED60E05EDE482F426080ED92
:1004800060E04ADECF910895BA9AB89AC09AC29AAB
:100490008FEF8FB98AE28DB980EF8EB90895809180
:1004A000660008958EB98BE200C000C000008DB9CF
:1004B000B29BFECF00C000C08DB9769BF5CF00C0C7
:1004C00000C000008FB19FEF9FB9B89A0895C29AFB
:1004D000C29BFECF00C000C00000C09800C000C09A
:1004E000C298C09A779908C083E090E09093670023
:1004F0008093660080E0089581E00895C098C29AD4
:10050000B29BFECF00C000C0C09A00C000C0000077
:10051000759908C084E090E090936700809366002E
:1005200080E0089581E00895A0E0B0E0E9E9F2E01C
:100530009FC0EC01E62E988181E090FD80E0982F2D
:10054000990F809166008D7F892B81608093660072
:10055000BEDF882309F453C0FE2C8E01DD24DA941B
:1005600080916600837099F1C298F80180818FB9FB
:1005700080EF98DFB8988EEF95DF9091660080FF4E
:1005800008C090FF03C081E090E016C082E090E0D8
:1005900013C0892F85708430A1F48881816088839D
:1005A000109267001092660081E0809366008FDFF2
:1005B0008823E1F48AE090E09093670080936600DE
:1005C0001EC00F5F1F4F9E7F9093660011C0B898AA
:1005D00080EF68DFF80181938F01FF2DF13011F476
:1005E000DFB801C01FB88EEF5DDF02C0FE2C8E01A8
:1005F000FA9409F0B5CF82DF91E0882309F490E006
:10060000892FCDB7DEB7E7E04FC010926700109298
:1006100066008ADF0895FC0120812E7F20831092DE
:1006200067001092660024E0209366007DDF089545
:10063000002480FD060E660F11F08695D1F7802DFF
:100640000895991B79E004C0991F961708F0961B2E
:10065000881F7A95C9F7809508952F923F924F92FF
:100660005F926F927F928F929F92AF92BF92CF9242
:10067000DF92EF92FF920F931F93CF93DF93CDB74B
:10068000DEB7CA1BDB0B0FB6F894DEBF0FBECDBFC3
:1006900009942A88398848885F846E847D848C8494
:1006A0009B84AA84B984C884DF80EE80FD800C819D
:1006B0001B81AA81B981CE0FD11D0FB6F894DEBF80
:1006C0000FBECDBFED010895E199FECF1FBA8EBBDD
:1006D000E09A99278DB30895262FE199FECF1FBA8E
:1006E0008EBBE09A81500DB2021639F01CBA2DBBB8
:1006F0000FB6F894E29AE19A0FBE0895F894FFCFEE
:00000001FF
