:100000000EC026C064C324C023C022C021C020C0AB
:100010001FC01EC01DC01CC01BC01AC019C01124A7
:100020001FBECFEDCDBF10E0A0E6B0E0ECEAF7E0F8
:1000300002C005900D92AA36B107D9F710E0AAE6E2
:10004000B0E001C01D92A337B107E1F767D0ACC3A0
:10005000D7CFC39AC4980895C49AC398089588B313
:10006000877E88BB08950F931F93CF93DF9304E09F
:10007000C0E012E00DC0DC1710F4EEDF01C0EFDFCE
:10008000D150C9F7C00F11F401951150112311F08F
:10009000D0E0F6CFE4DFDF91CF911F910F9108956B
:1000A000A1E0B0E0E5E5F0E03EC311C08983D1DF17
:1000B000E9E6F8E13197F1F700C00000D0DFE9E6AA
:1000C000F8E13197F1F700C0000089818150882361
:1000D00069F72196E2E043C3A1E0B0E0E1E7F0E098
:1000E00022C311C08983B5DFE3EDF0E33197F1F767
:1000F00000C00000B1DFE3EDF0E33197F1F700C09D
:10010000000089818150882369F7A9DF2196E2E008
:1001100026C380916A0010926A000895A3E0B0E0BF
:10012000E3E9F0E0FCC2789487B3886187BBB998B3
:10013000C19A3AD13BD1B2D10BC082E0CDDF8FE979
:1001400096E8A1E081509040A040E1F700C0000097
:1001500032D1882391F30BC082E0A2DF8FE996E8C9
:10016000A1E081509040A040E1F700C000003BD1E9
:10017000882391F378DF81E090E0FCD2882341F17D
:1001800082E090E0F7D2182F83E090E0F3D2682F5E
:1001900084E090E06B83EED2482F85E090E04A83C4
:1001A000E9D2282F86E090E02983E4D2082F87E067
:1001B00090E0E0D27FE0E72EE80E812F6B814A814C
:1001C000298124D181E090E060E0DCD288E084DF06
:1001D00088E090E0CFD280936D0089E090E0CAD2B1
:1001E00080936B008AE090E0C5D2182F80936C005A
:1001F0008BE090E0BFD2682F80936E00812F3AD1C0
:1002000010E080916A0010926A00882311F18091B9
:10021000700062E166D280936D00843220F064E267
:1002200071D280936D0080916F0080936B0088E0A5
:1002300090E060916D00A6D289E090E060916B0043
:10024000A1D280916D0060916B0014D181E044DFF8
:10025000D8CF90917000292F22952F70822F880F70
:10026000880F880F220F820F9F70890F90E03091C6
:100270006D00432F42954F70242F220F220F220F23
:10028000440F240F3F70230F30E0E0906B00FF24F9
:1002900040916F00E41AF108A90166E0440F551F70
:1002A0006A95E1F7E40EF51E220F331F220F331F6C
:1002B000E21AF30A9C0146E0220F331F4A95E1F748
:1002C000E21AF30A880F991F880F991FE80EF91E8A
:1002D000C7010A9601E08B30910508F000E0C701E4
:1002E00001978E31910540F0002359F4113081F0CF
:1002F00080E0D9D011E031C0123019F081E0D3D0C4
:1003000012E0002329F0133031F181E0CCD023C07A
:10031000123019F0133009F51EC0F7FE04C0F09436
:10032000E194F108F39496E0E916F1048CF482E08C
:10033000B7DE92DEA9E6B8E11197F1F700C0000040
:100340008EDEE9E6F8E13197F1F700C0000005C064
:1003500081E0A6DE02C087DE13E081DE81E090E06E
:100360007CD185B7877E806185BF81E07ED173D0E7
:10037000882339F485B7806285BF889585B78F7DDE
:1003800085BF80E072D180E090E067D10DD063D06E
:1003900091E0811190E090936A0057D10097E9F7BE
:1003A00080E790E091D02DCF69D1089580ED60E095
:1003B00048E566D10895CF9380ED63E070D1C82FF2
:1003C0008FE095E1A3E081509040A040E1F700C0AC
:1003D000000080ED63E063D191E08C1709F490E0B8
:1003E000892FCF910895CF9380ED63E158D1C82F25
:1003F000C95F80ED63E14C2F43D180ED63E14FD1C4
:1004000091E08C1390E0892FCF910895A1E0B0E0A6
:10041000EBE0F2E084C1982FF62E142F80ED69E016
:10042000492F29832DD180ED68E04F2D29D180ED12
:1004300066E0412F25D180ED65E02981422F20D152
:1004400080ED64E0402F1CD180ED63E04E2D18D18B
:100450002196E6E080C1CF9380ED61E020D1C82FE6
:1004600080ED61E040E00CD1C87181E009F480E0EA
:10047000CF910895CF93C82F462F80ED6AE000D129
:1004800080ED6BE04C2FFCD080ED60E008D1482F70
:10049000426080ED60E0F4D0CF91089580ED6FE090
:1004A00048E3EED00895CF93C82F80ED60E0F7D0F9
:1004B000CC2319F0482F446002C0482F4B7F80EDB9
:1004C00060E0DED0CF910895CF93DF93EC0180ED13
:1004D00065E0E5D0888380ED64E0E1D08983DF9139
:1004E000CF910895BA9AB89AC09AC29A8FEF8FB9ED
:1004F0008AE28DB980EF8EB90895809171000895D8
:10050000C29AC29BFECF00C000C00000C09800C0CD
:1005100000C0C298C09A81E00895C098C29AB29B68
:10052000FECF00C000C0C09A00C000C0000081E043
:1005300008958EB98BE200C000C000008DB9B29B57
:10054000FECF00C000C08DB9769BF5CF00C000C0C3
:1005500000008FB19FEF9FB9B89A0895A0E0B0E076
:10056000E3EBF2E0DBC0EC01E62E988181E090FD48
:1005700080E0982F990F809171008D7F892B816089
:1005800080937100BDDF882309F453C0FE2C8E01D7
:10059000DD24DA9480917100837099F1C298F8019A
:1005A00080818FB980EFC5DFB8988EEFC2DF909160
:1005B000710080FF08C090FF03C081E090E016C08A
:1005C00082E090E013C0892F85708430A1F4888187
:1005D00081608883109272001092710081E0809394
:1005E00071008EDF8823E1F48AE090E0909372003E
:1005F000809371001EC00F5F1F4F9E7F909371000C
:1006000011C0B89880EF95DFF80181938F01FF2D1D
:10061000F13011F4DFB801C01FB88EEF8ADF02C0DD
:10062000FE2C8E01FA9409F0B5CF77DF91E0882394
:1006300009F490E0892FCDB7DEB7E7E08BC01092C8
:100640007200109271008ADF089521E030E0B19BC2
:1006500002C020E030E0C90108952DE020BD0097E0
:1006600019F080B5826080BD089592E095BB882323
:1006700011F080E201C080E08BBF089533DF089560
:10068000A3E0B0E0E5E4F3E04EC089836A834B83E6
:10069000CE01019663E0D3DF2396E2E060C0A2E0E2
:1006A000B0E0E4E5F3E03DC089836A838E010F5F2B
:1006B0001F4FC80162E0C3DF8981816089831A828C
:1006C000C80162E0BCDF8A812296E4E046C01F9246
:1006D0000F920FB60F9211240F900FBE0F901F9024
:1006E0001895982F9A5F862F890F6927682760953C
:1006F0006071962F96959695969566956695962B2C
:10070000891B0895FFCF2F923F924F925F926F9275
:100710007F928F929F92AF92BF92CF92DF92EF9291
:10072000FF920F931F93CF93DF93CDB7DEB7CA1B12
:10073000DB0B0FB6F894DEBF0FBECDBF09942A883D
:10074000398848885F846E847D848C849B84AA84E5
:10075000B984C884DF80EE80FD800C811B81AA8172
:10076000B981CE0FD11D0FB6F894DEBF0FBECDBF3D
:10077000ED010895E199FECF1FBA8EBBE09A99274B
:100780008DB30895262FE199FECF1FBA8EBBE09A54
:1007900081500DB2021639F01CBA2DBB0FB6F89479
:0C07A000E29AE19A0FBE0895F894FFCF92
:0A07AC0012241E0A0802381004008F
:00000001FF
