:100000000EC01BC0AAC119C018C017C016C015C0A9
:1000100014C013C012C011C010C00FC00EC01124F4
:100020001FBECFEDCDBF10E0A0E6B0E001C01D9235
:10003000A536B107E1F79BD141C3E2CF00C000C0B4
:1000400000C000C000C000C000000895B898BA9871
:10005000C098C2980895B89AF1DF1DD00895BA9A51
:10006000EDDFB898EBDFBA98E9DFB89AE7DF13D095
:100070000895082EB89AE2DF802D0DD0882311F064
:1000800002D0F8CF0895BA9AB89AD8DFBA98D6DFD6
:10009000B898D4DF08950894881F01C0880F59F0DC
:1000A000BA9A18F40000B89802C0B89A00C0C6DF27
:1000B000BA98C4DFF3CFBA9AB898C0DFBA98B29BA7
:1000C000FECF8827B09981E0B9DF99270895882766
:1000D00001C081E071E0BA9AB898B0DFBA98AEDF9B
:1000E000B29BFECF8894B0990894771FA0F7BA9A74
:1000F000813011F0B89801C0B89AA0DFBA98B29BCD
:10010000FECF9CDF872F992708952DE020BD009713
:1001100019F080B5826080BD0895482F892F82959F
:100120008F706AE03DD29F70980F892F90E06CE34A
:1001300070E03FD29C01842F82958F706AE030D2AC
:100140004F70480FC901840F911D0895CF93DF931D
:10015000EB01E3DFC80FD91F02C0C056DA4FD7FD4D
:10016000FCCF02C0C05AD54085E0C03AD807D4F7CA
:1001700020E002C0EC972F5FCC33D105D8F74AE0DE
:10018000822F642F28D2382F8C2F25D2482F66EF4C
:1001900007D2C80FCF704295407FC40F832F66EF00
:1001A000FFD1280F2F703295307F230F30E0322F90
:1001B0002227C9018C0F911DDF91CF910895C39A19
:1001C000C4980895C49AC398089588B3877E88BB5D
:1001D00008950F931F93CF93DF9304E0C0E012E0E4
:1001E0000DC0DC1710F4EEDF01C0EFDFD150C9F70E
:1001F000C00F11F401951150112311F0D0E0F6CF8A
:10020000E4DFDF91CF911F910F910895A1E0B0E05D
:10021000EBE0F1E0FCC111C08983D1DFE9E6F8E150
:100220003197F1F700C00000D0DFE9E6F8E131973F
:10023000F1F700C0000089818150882369F7219679
:10024000E2E001C2A1E0B0E0E7E2F1E0E0C111C00C
:100250008983B5DFE3EDF0E33197F1F700C00000EB
:10026000B1DFE3EDF0E33197F1F700C000008981E1
:100270008150882369F7A9DF2196E2E0E4C1A1E07B
:10028000B0E0E4E4F1E0C2C1182F80ED6983F1DE53
:10029000812F01DF6981862FFEDEF5DE2196E3E006
:1002A000D1C1A1E0B0E0E6E5F1E0B0C1182F80EDEA
:1002B000E0DE812FF0DE81EDD2DE09DF8983E3DE2F
:1002C00089812196E3E0BEC1CF9385E0EADFC82FA4
:1002D00084E0E7DF2C2F30E0322F222790E0282B1C
:1002E000392B3093630020936200CF910895CF9310
:1002F00081E0D7DFC82F81E060E0C1DFC87181E015
:1003000009F480E0CF910895CF93DF93809160004E
:100310009091610062EE7FEF19DFEC018AE06C2FB3
:10032000AEDF6D2F77278BE0AADF80E0BADF682F82
:10033000626080E0A4DFDF91CF910895CF93C82F52
:1003400080E0AFDFCC2319F0682F646002C0682F13
:100350006B7F80E094DFCF9108951F920F920FB6CC
:100360000F9211240F900FBE0F901F901895A8E0C8
:10037000B0E0ECEBF1E046C1789487B3886187BBCD
:10038000B998C19A63DE80E068E579DF8FE068E3C1
:1003900076DF0BC082E056DF8FE996E8A1E081505E
:1003A0009040A040E1F700C0000083E07ADF082F12
:1003B0008FE095E1A3E081509040A040E1F700C0BC
:1003C000000083E06EDF801729F30BC082E01EDFA0
:1003D0008FE996E8A1E081509040A040E1F700C08D
:1003E000000083E15EDF082F065583E1602F47DFC1
:1003F00083E157DF801751F7ECDE81E090E03DD1DB
:10040000882309F18E010F5F1F4FC80162E070E081
:1004100047E050E023D180ED2CDE83E03CDE78E045
:10042000E72EF12CEC0EFD1E04C0D8018D918D013C
:1004300032DE0E151F05C9F726DE81E090E060E090
:1004400027D188E0FFDE40DF89E090E01ED1909365
:1004500061008093600058DFEE2462E0F62E50E2E7
:10046000D52E2091640010926400809162009091DA
:100470006300222379F060ED72E068DEBC019093A6
:1004800061008093600089E090E014D13DDF81E05D
:10049000D9DEE7CF42DE8C0180916000909161004F
:1004A0003CDE081B190BB2E0003D1B071CF0005A94
:1004B000154006C0EDEF01331E0714F400561A4F25
:1004C000C8010A9621E08B30910508F020E0C801B0
:1004D00001978E31910550F0222389F4FE2DF130E1
:1004E000B1F080E02BDFEE24E39436C08E2D823015
:1004F00031F081E0288722DF42E0E42E28852223A4
:1005000031F09E2D933029F181E018DF22C0AE2D0D
:10051000A23019F0A33001F51CC017FF03C01095DD
:1005200001951F4F063011058CF482E06FDE4ADE24
:10053000E9E6F8E13197F1F700C0000046DE89E610
:1005400098E10197F1F700C0000006C081E05EDE8F
:1005500003C03FDE33E0E32E38DE81E090E0D5DDFE
:1005600085B7877E806185BFF5BADBBEC0DE882394
:1005700039F485B7806285BF889585B78F7D85BF43
:10058000F5BA1BBE80E090E0C0DD60DDB0DE91E03A
:10059000811190E090936400B19BFECF95DE61CF16
:1005A000002480FD060E660F11F08695D1F7802D90
:1005B00008955527002480FF02C0060E571F660FBE
:1005C000771F6115710521F096958795009799F72A
:1005D000952F802D0895991B79E004C0991F9617D7
:1005E00008F0961B881F7A95C9F7809508952F9279
:1005F0003F924F925F926F927F928F929F92AF92B3
:10060000BF92CF92DF92EF92FF920F931F93CF93FF
:10061000DF93CDB7DEB7CA1BDB0B0FB6F894DEBF96
:100620000FBECDBF09942A88398848885F846E84BC
:100630007D848C849B84AA84B984C884DF80EE8006
:10064000FD800C811B81AA81B981CE0FD11D0FB60F
:10065000F894DEBF0FBECDBFED010895A82F862F01
:10066000E82FE199FECF1FBA05C0EEBBE09AE395F3
:100670000DB20D924150C8F70895E199FECF1FBA0F
:100680008EBBE09A99278DB30895A8E142E0E8CFA8
:10069000262FE199FECF1FBA8EBBE09A81500DB292
:1006A000021639F01CBA2DBB0FB6F894E29AE19A03
:1006B0000FBE08950196272FECDFEACFF894FFCF05
:00000001FF
