:100000000EC01BC097C119C018C017C016C015C0BC
:1000100014C013C012C011C010C00FC00EC01124F4
:100020001FBECFEDCDBF10E0A0E6B0E001C01D9235
:10003000A536B107E1F788D13CC3E2CF00C000C0CC
:1000400000C000C000C000C000000895B898BA9871
:10005000C098C2980895B89AF1DF1DD00895BA9A51
:10006000EDDFB898EBDFBA98E9DFB89AE7DF13D095
:100070000895082EB89AE2DF802D0DD0882311F064
:1000800002D0F8CF0895BA9AB89AD8DFBA98D6DFD6
:10009000B898D4DF08950894881F01C0880F59F0DC
:1000A000BA9A18F40000B89802C0B89A00C0C6DF27
:1000B000BA98C4DFF3CFBA9AB898C0DFBA98B29BA7
:1000C000FECF8827B09981E0B9DF99270895882766
:1000D00001C081E071E0BA9AB898B0DFBA98AEDF9B
:1000E000B29BFECF8894B0990894771FA0F7BA9A74
:1000F000813011F0B89801C0B89AA0DFBA98B29BCD
:10010000FECF9CDF872F992708952DE020BD009713
:1001100019F080B5826080BD0895482F892F82959F
:100120008F706AE038D29F70980F892F90E06CE34F
:1001300070E03AD29C01842F82958F706AE02BD2B6
:100140004F70480FC901840F911D0895CF93DF931D
:10015000EB01E3DFC80FD91F02C0C056DA4FD7FD4D
:10016000FCCF02C0C05AD54085E0C03AD807D4F7CA
:1001700020E002C0EC972F5FCC33D105D8F74AE0DE
:10018000822F642F23D2382F8C2F20D2482F66EF56
:1001900002D2C80FCF704295407FC40F832F66EF05
:1001A000FAD1280F2F703295307F230F30E0322F95
:1001B0002227C9018C0F911DDF91CF910895C39A19
:1001C000C4980895C49AC398089588B3877E88BB5D
:1001D00008950F931F93CF93DF9304E0C0E012E0E4
:1001E0000DC0DC1710F4EEDF01C0EFDFD150C9F70E
:1001F000C00F11F401951150112311F0D0E0F6CF8A
:10020000E4DFDF91CF911F910F910895A1E0B0E05D
:10021000EBE0F1E0F7C111C08983D1DFE9E6F8E155
:100220003197F1F700C00000D0DFE9E6F8E131973F
:10023000F1F700C0000089818150882369F7219679
:10024000E2E0FCC1A1E0B0E0E7E2F1E0DBC111C017
:100250008983B5DFE3EDF0E33197F1F700C00000EB
:10026000B1DFE3EDF0E33197F1F700C000008981E1
:100270008150882369F7A9DF2196E2E0DFC1A1E080
:10028000B0E0E4E4F1E0BDC1182F80EDF2DE812F93
:1002900002DF81EDE4DE1BDF8983F5DE89812196B3
:1002A000E3E0CBC1A1E0B0E0E7E5F1E0AAC1182F9F
:1002B00080ED6983DEDE812FEEDE6981862FEBDE45
:1002C000E2DE2196E3E0B9C1CF9381E0D8DFC82F09
:1002D00081E060E0E7DFC87181E009F480E0CF9160
:1002E0000895CF93DF93809160009091610062EE5A
:1002F0007FEF2CDFEC018AE06C2FD4DF6D2F7727A6
:100300008BE0D0DF80E0BBDF682F626080E0CADF77
:10031000DF91CF910895CF93C82F80E0B0DFCC2339
:1003200019F0682F646002C0682F6B7F80E0BADF2D
:10033000CF9108951F920F920FB60F9211240F9034
:100340000FBE0F901F901895A8E0B0E0E9EAF1E029
:1003500054C1789487B3886187BBB998C19A76DE17
:1003600080E068E59FDF8FE068E39CDF0BC082E000
:1003700069DF8FE996E8A1E081509040A040E1F765
:1003800000C0000083E07BDF082F8FE095E1A3E051
:1003900081509040A040E1F700C0000083E06FDF93
:1003A000801729F30BC082E031DF8FE996E8A1E0E6
:1003B00081509040A040E1F700C0000083E15FDF82
:1003C000082F095F83E1602F6DDF83E158DF80171D
:1003D00051F7FFDE80E090E04BD1882309F181E006
:1003E00090E08E010F5F1F4FB80147E050E031D120
:1003F00080ED3FDE83E04FDEF8E0EF2EF12CEC0ED7
:10040000FD1E04C0D8018D918D0145DE0E151F051E
:10041000C9F739DE80E090E060E035D188E012DF96
:1004200082E090E02DD1909361008093600059DFCD
:10043000EE24E2E0FE2E70E2D72E209164001092AE
:1004400064008091620090916300222379F060ED56
:1004500072E07CDEBC01909361008093600082E0DA
:1004600090E023D13EDF81E0EDDEE7CF56DE8C0168
:10047000809160009091610050DE081B190BB2E082
:10048000003D1B071CF0005A154006C0EDEF01337C
:100490001E0714F400561A4FC8010A9621E08B304B
:1004A000910508F020E0C80101978E31910550F0C8
:1004B000222389F4FE2DF130B1F080E02CDFEE2410
:1004C000E39436C08E2D823031F081E0288723DF1F
:1004D00062E0E62E2885222331F09E2D933029F10B
:1004E00081E019DF22C0AE2DA23019F0A33001F552
:1004F0001CC017FF03C0109501951F4F0630110552
:100500008CF482E083DE5EDEE9E6F8E13197F1F714
:1005100000C000005ADE89E698E10197F1F700C0BB
:10052000000006C081E072DE03C053DE53E0E52E1A
:100530004CDE81E090E0E9DD85B7877E806185BF94
:10054000F5BADBBEC1DE882339F485B7806285BF8A
:10055000889585B78F7D85BFF5BA1BBE80E090E09A
:10056000D4DD74DDB1DE91E0811190E09093640000
:10057000B19BFECF85E083DE082F84E080DE202F54
:1005800030E0322F222790E0282B392B3093630064
:100590002093620052CF002480FD060E660F11F0FA
:1005A0008695D1F7802D08955527002480FF02C03D
:1005B000060E571F660F771F6115710521F096957E
:1005C0008795009799F7952F802D0895991B79E0CD
:1005D00004C0991F961708F0961B881F7A95C9F7D3
:1005E000809508952F923F924F925F926F927F92E3
:1005F0008F929F92AF92BF92CF92DF92EF92FF9233
:100600000F931F93CF93DF93CDB7DEB7CA1BDB0BDE
:100610000FB6F894DEBF0FBECDBF09942A88398883
:1006200048885F846E847D848C849B84AA84B9848A
:10063000C884DF80EE80FD800C811B81AA81B98196
:10064000CE0FD11D0FB6F894DEBF0FBECDBFED01AA
:100650000895A82F862FE82FE199FECF1FBA05C075
:10066000EEBBE09AE3950DB20D924150C8F70895A4
:10067000E199FECF1FBA8EBBE09A99278DB30895FA
:10068000A8E142E0E8CF262FE199FECF1FBA8EBB4A
:10069000E09A81500DB2021639F01CBA2DBB0FB68C
:1006A000F894E29AE19A0FBE08950196272FECDFA5
:0606B000EACFF894FFCF31
:00000001FF
