:100000000EC01BC0B9C119C018C017C016C015C09A
:1000100014C013C012C011C010C00FC00EC01124F4
:100020001FBECFEDCDBF10E0A0E6B0E001C01D9235
:10003000A836B107E1F7AAD174C3E2CF00C000C06F
:1000400000C000C000C000C000000895B898BA9871
:10005000C098C2980895B89AF1DF1DD00895BA9A51
:10006000EDDFB898EBDFBA98E9DFB89AE7DF13D095
:100070000895082EB89AE2DF802D0DD0882311F064
:1000800002D0F8CF0895BA9AB89AD8DFBA98D6DFD6
:10009000B898D4DF08950894881F01C0880F59F0DC
:1000A000BA9A18F40000B89802C0B89A00C0C6DF27
:1000B000BA98C4DFF3CFBA9AB898C0DFBA98B29BA7
:1000C000FECF8827B09981E0B9DF99270895882766
:1000D00001C081E071E0BA9AB898B0DFBA98AEDF9B
:1000E000B29BFECF8894B0990894771FA0F7BA9A74
:1000F000813011F0B89801C0B89AA0DFBA98B29BCD
:10010000FECF9CDF872F992708952DE020BD009713
:1001100019F080B5826080BD0895482F892F82959F
:100120008F706AE070D29F70980F892F90E06CE317
:1001300070E072D29C01842F82958F706AE063D246
:100140004F70480FC901840F911D0895CF93DF931D
:10015000EB01E3DFC80FD91F02C0C056DA4FD7FD4D
:10016000FCCF02C0C05AD54085E0C03AD807D4F7CA
:1001700020E002C0EC972F5FCC33D105D8F74AE0DE
:10018000822F642F5BD2382F8C2F58D2482F66EFE6
:100190003AD2C80FCF704295407FC40F832F66EFCD
:1001A00032D2280F2F703295307F230F30E0322F5C
:1001B0002227C9018C0F911DDF91CF910895C39A19
:1001C000C4980895C49AC398089588B3877E88BB5D
:1001D00008950F931F93CF93DF9304E0C0E012E0E4
:1001E0000DC0DC1710F4EEDF01C0EFDFD150C9F70E
:1001F000C00F11F401951150112311F0D0E0F6CF8A
:10020000E4DFDF91CF911F910F910895A1E0B0E05D
:10021000EBE0F1E02FC211C08983D1DFE1EEF4E021
:100220003197F1F700C00000D0DFE1EFFBE231973A
:10023000F1F700C0000089818150882369F7219679
:10024000E2E034C2A1E0B0E0E7E2F1E013C211C0A5
:100250008983B5DFE9E6F8E13197F1F700C00000E6
:10026000B1DFE9E6F8E13197F1F700C000008981DC
:100270008150882369F7A9DF2196E2E017C2A1E047
:10028000B0E0E4E4F1E0F5C1182F80ED6983F1DE20
:10029000812F01DF6981862FFEDEF5DE2196E3E006
:1002A00004C290DF81EE94E00197F1F700C00000F6
:1002B0008CDF81EF9BE20197F1F700C00000089509
:1002C000A1E0B0E0E5E6F1E0D4C1182F80EDD1DE89
:1002D000812FE1DE81EDC3DEFADE8983D4DE898100
:1002E0002196E3E0E2C1CF9385E0EADFC82F84E006
:1002F000E7DF2C2F30E0322F222790E0282B392BFC
:100300003093630020936200CF910895CF9381E0F2
:10031000D7DFC82F81E060E0B2DFC87181E009F467
:1003200080E0CF910895CF93DF938091600090910A
:10033000610062EE7FEF0ADFEC018AE06C2F9FDF45
:100340006D2F77278BE09BDF80E0BADF682F62603C
:1003500080E095DFDF91CF910895CF93C82F80E0A3
:10036000AFDFCC2319F0682F646002C0682F6B7F69
:1003700080E085DFCF9108951F920F920FB60F9204
:1003800011240F900FBE0F901F901895A9E0B0E0B8
:10039000EBECF1E067C1789487B3886187BBB998CB
:1003A000C19A54DE80E068E56ADF8FE068E367DFCA
:1003B0000BC082E047DF8FE996E8A1E081509040D2
:1003C000A040E1F700C0000083E07ADF082F8FE053
:1003D00095E1A3E081509040A040E1F700C000000B
:1003E00083E06EDF801729F30BC082E00FDF8FE917
:1003F00096E8A1E081509040A040E1F700C00000E5
:1004000083E15EDF082F065583E1602F38DF83E14B
:1004100057DF801751F7DDDE81E090E061D188235E
:1004200009F18E010F5F1F4FC80162E070E047E0E5
:1004300050E047D180ED1DDE83E02DDE78E0E72E31
:10044000F12CEC0EFD1E04C0D8018D918D0123DE30
:100450000E151F05C9F717DE81E090E060E04BD173
:1004600088E0F0DE40DF89E090E042D190936100C7
:100470008093600058DF188662E0D62E50E2A52EE9
:100480004AE0B42E3FE0C32E8091670010926700CF
:100490000091620010916300882381F0C80160ED33
:1004A00072E054DEBC01909361008093600089E0AB
:1004B00090E033D138DF81E0C5DEE6CF8091600087
:1004C000909161002ADE7C01C80127DEF701E81B5C
:1004D000F90BCF01F2E0803D9F071CF0805A954058
:1004E00006C02DEF8133920714F480569A4F9C0179
:1004F000265F3F4F41E02B30310508F040E08C0192
:1005000097FF04C000271127081B190B01978E3194
:10051000910550F04423A9F438853130D1F080E0C2
:100520001CDF81E088874BC09885923051F081E0D4
:10053000498713DFB0926400C0926500A2E0A887EB
:100540004985442331F0B885B330B1F181E005DF4E
:1005500033C0E885E23019F0E33089F52DC03091E1
:1005600064002091650002C026953695822F90E0A8
:100570000817190714F43230B8F730936400209349
:10058000650080916600982F9150909366008823B3
:10059000B1F40230110514F481E004C002301105F9
:1005A00021F482E033DE7DDE02C081E02FDE809127
:1005B00064008093660003C00CDEF3E0F88705DE7C
:1005C00081E090E0A2DD85B7877E806185BFD5BAE6
:1005D000ABBE9CDE882339F485B7806285BF8895E1
:1005E00085B78F7D85BFD5BA1BBE80E090E08DDDDD
:1005F0002DDD8CDE91E0811190E090936700B19B3E
:10060000FECF71DE41CF002480FD060E660F11F093
:100610008695D1F7802D08955527002480FF02C0CC
:10062000060E571F660F771F6115710521F096950D
:100630008795009799F7952F802D0895991B79E05C
:1006400004C0991F961708F0961B881F7A95C9F762
:10065000809508952F923F924F925F926F927F9272
:100660008F929F92AF92BF92CF92DF92EF92FF92C2
:100670000F931F93CF93DF93CDB7DEB7CA1BDB0B6E
:100680000FB6F894DEBF0FBECDBF09942A88398813
:1006900048885F846E847D848C849B84AA84B9841A
:1006A000C884DF80EE80FD800C811B81AA81B98126
:1006B000CE0FD11D0FB6F894DEBF0FBECDBFED013A
:1006C0000895A82F862FE82FE199FECF1FBA05C005
:1006D000EEBBE09AE3950DB20D924150C8F7089534
:1006E000E199FECF1FBA8EBBE09A99278DB308958A
:1006F000A8E142E0E8CF262FE199FECF1FBA8EBBDA
:10070000E09A81500DB2021639F01CBA2DBB0FB61B
:10071000F894E29AE19A0FBE08950196272FECDF34
:06072000EACFF894FFCFC0
:00000001FF
