:100000000EC013C013C011C010C00FC00EC00DC071
:100010000CC00BC00AC009C008C007C006C011242C
:100020001FBECFEDCDBF17D03BC0EACF1F920F92BE
:100030000FB60F9211248F939F938BE291E001975B
:10004000F1F700C0000086B39F918F910F900FBE13
:100050000F901F90189587B3886187BBB998C19A94
:1000600085E080BD80E28BBF82E085BB88B3877E60
:1000700088BBC39AC4988FEB94EDA1E08150904067
:10008000A040E1F700C00000C49AC3988FEB94ED44
:10009000A1E081509040A040E1F700C00000E9CF0E
:0400A000F894FFCF02
:00000001FF
