:100000000EC01BC04DC319C018C017C016C015C004
:1000100014C013C012C011C010C00FC00EC01124F4
:100020001FBECFEDCDBF10E0A0E6B0E001C01D9235
:10003000A836B107E1F766D0DCC3E2CFC39AC49813
:100040000895C49AC398089588B3877E88BB08959D
:10005000A1E0B0E0EDE2F0E077C311C08983EEDF0C
:10006000E9E6F8E13197F1F700C00000EDDFE9E6DD
:10007000F8E13197F1F700C00000898181508823B1
:1000800069F72196E2E07CC3A1E0B0E0E9E4F0E0AA
:100090005BC311C08983D5DFE9E6F8E13197F1F759
:1000A00000C00000D1DFE9E6F8E13197F1F700C0C8
:1000B000000089818150882369F72196E2E060C3BE
:1000C000A1E0B0E0E5E6F0E03FC311C08983B6DF10
:1000D000E3EDF0E33197F1F700C00000B2DFE3EDAC
:1000E000F0E33197F1F700C0000089818150882347
:1000F00069F7AADF2196E2E043C380916500109280
:1001000065000895A3E0B0E0E7E8F0E019C387B325
:10011000886187BBB998C19A1BD166D193D20BC0B5
:1001200084E0CEDF8FE996E8A1E081509040A040C6
:10013000E1F700C000000ED1882391F30BC082E0EC
:1001400087DF8FE996E8A1E081509040A040E1F779
:1001500000C0000013D1882391F384E095DF81E093
:1001600090E02DD3882341F182E090E028D3182F2E
:1001700083E090E024D3682F84E090E06B831FD36A
:10018000482F85E090E04A831AD3282F86E090E03C
:10019000298315D3082F87E090E011D39FE0E92E43
:1001A000E80E812F6B814A812981EAD081E090E0BD
:1001B00060E00DD388E084DF88E090E000D32AD1AE
:1001C0008093630089E090E0FAD224D1682F809375
:1001D00064008091630045D180E00BD1789410E0F9
:1001E00001C013E031DF81E090E024D285B7877E43
:1001F000806185BF85B7806285BF889585B78F7D13
:1002000085BF80E090E016D2A3D0DFD091E08111CD
:1002100090E090936500992319F404D20097E9F7D0
:1002200082E690E0FFD090916500109265002091E9
:10023000610080916200992369F130E020533D4FC5
:1002400090E06CE370E03FD2280F391F02C0205AC3
:10025000354095E0203A3907D4F7C9016CE370E0E6
:1002600050D26093630080936400862FF4D0682F8F
:1002700088E090E0ACD280916400EDD0682F89E0F6
:1002800090E0A5D28091630060916400EAD081E0A3
:1002900017DFA8CF90E06CE370E015D230916400D6
:1002A0007C01E31AF108E20EF11C8091630090E0FA
:1002B0006CE370E008D2E81AF90AC701099601E078
:1002C0008A30910508F000E0C70101978D31910552
:1002D00040F0002359F4113081F080E08AD011E021
:1002E00081CF123019F081E084D012E0002329F090
:1002F000133029F181E07DD022C0123021F013307B
:1003000009F070CF1CC0A4E0EA16F1042CF482E0DE
:100310009FDE81E0B9DE66CF81E09ADE63CF1E15F5
:1003200010F48FDE01C090DE1150C9F7E00E11F419
:100330000195FA94FF2009F454CF10E0F5CF82E044
:10034000F82E04E0EE24F9CF80ED63E091D108951A
:100350007ED10895CF93F8DFC82F8FE095E1A3E019
:1003600081509040A040E1F700C00000EDDF91E037
:100370008C1709F490E0892FCF91089581E00895BA
:10038000A1E0B0E0E5ECF1E0DBC1982FF62E142FF0
:1003900080ED69E0492F29835CD180ED68E04F2D25
:1003A00058D180ED66E0412F54D180ED65E0298180
:1003B000422F4FD180ED64E0402F4BD180ED63E0C0
:1003C0004E2D47D12196E6E0D7C180ED61E050D1B6
:1003D000982F987139F0482F477E80ED61E039D130
:1003E00081E0089580E0089580ED6FE048E331D129
:1003F0000895CF93C82F80ED60E03AD1CC2319F057
:10040000482F446002C0482F4B7F80ED60E021D12F
:10041000CF910895982F82958F706AE04BD19F708D
:10042000890F08950F931F93CF93DF938C0180ED75
:1004300065E01ED1EFDFE801899380ED64E018D11B
:10044000E9DFF801818380DFE5DF8983DF91CF91E8
:100450001F910F9108956AE048D18295807F890F9E
:100460000895CF93C82F862FF6DF482F405880ED90
:100470006AE0EFD08C2FEFDF482F405880ED6BE023
:10048000E8D080ED60E0F4D0482F426080ED60E07D
:10049000E0D0CF910895BA9AB89AC09AC29A8FEFD5
:1004A0008FB98AE28DB980EF8EB908958091660088
:1004B00008958EB98BE200C000C000008DB9B29BD8
:1004C000FECF00C000C08DB9769BF5CF00C000C044
:1004D00000008FB19FEF9FB9B89A0895C29AC29B4E
:1004E000FECF00C000C00000C09800C000C0C2988D
:1004F000C09A779908C083E090E09093670080935A
:10050000660080E0089581E00895C098C29AB29B89
:10051000FECF00C000C0C09A00C000C000007599A6
:1005200008C084E090E0909367008093660080E0CC
:10053000089581E00895A0E0B0E0E0EAF2E0FFC0B5
:10054000EC01E62E988181E090FD80E0982F990FD4
:10055000809166008D7F892B816080936600BEDF6D
:10056000882309F453C0FE2C8E01DD24DA94809197
:100570006600837099F1C298F80180818FB980EF8D
:1005800098DFB8988EEF95DF9091660080FF08C0E5
:1005900090FF03C081E090E016C082E090E013C0BD
:1005A000892F85708430A1F48881816088831092BE
:1005B00067001092660081E0809366008FDF8823D9
:1005C000E1F48AE090E090936700809366001EC09B
:1005D0000F5F1F4F9E7F9093660011C0B89880EF09
:1005E00068DFF80181938F01FF2DF13011F4DFB83E
:1005F00001C01FB88EEF5DDF02C0FE2C8E01FA94A1
:1006000009F0B5CF82DF91E0882309F490E0892FCB
:10061000CDB7DEB7E7E0AFC010926700109266007A
:100620008ADF089521E030E0B19B02C020E030E095
:10063000C90108952DE020BD009719F080B58260B2
:1006400080BD089582E085BB80E28BBF089523DFE3
:100650000895A3E0B0E0EEE2F3E076C089836A8318
:100660004B83CE01019663E0D7DF2396E2E088C09A
:10067000A2E0B0E0EDE3F3E065C089836A838E0118
:100680000F5F1F4FC80162E0C7DF898181608983E6
:100690001A82C80162E0C0DF8A812296E4E06EC05F
:1006A0001F920F920FB60F9211240F900FBE0F9052
:1006B0001F901895002480FD060E660F11F0869598
:1006C000D1F7802D08955527002480FF02C0060E23
:1006D000571F660F771F6115710521F09695879555
:1006E000009799F7952F802D0895991B79E004C004
:1006F000991F961708F0961B881F7A95C9F7809561
:10070000089597FB092E07260AD077FD04D043D021
:1007100006D000201AF4709561957F4F0895F6F782
:10072000909581959F4F08952F923F924F925F929F
:100730006F927F928F929F92AF92BF92CF92DF92F1
:10074000EF92FF920F931F93CF93DF93CDB7DEB756
:10075000CA1BDB0B0FB6F894DEBF0FBECDBF0994EA
:100760002A88398848885F846E847D848C849B8441
:10077000AA84B984C884DF80EE80FD800C811B814F
:10078000AA81B981CE0FD11D0FB6F894DEBF0FBE7E
:10079000CDBFED010895AA1BBB1B51E107C0AA1FE5
:1007A000BB1FA617B70710F0A61BB70B881F991F12
:1007B0005A95A9F780959095BC01CD010895E199CE
:1007C000FECF1FBA8EBBE09A99278DB30895262FCE
:1007D000E199FECF1FBA8EBBE09A81500DB202168E
:1007E00039F01CBA2DBB0FB6F894E29AE19A0FBE0D
:0607F0000895F894FFCF0C
:00000001FF
