:100000000EC01BC020C319C018C017C016C015C031
:1000100014C013C012C011C010C00FC00EC01124F4
:100020001FBECFEDCDBF10E0A0E6B0E001C01D9235
:10003000A736B107E1F7C0D161C3E2CFC39AC49834
:100040000895C49AC398089588B3877E88BB08959D
:100050000F931F93CF93DF9304E0C0E012E00DC035
:10006000DC1710F4EEDF01C0EFDFD150C9F7C00F8D
:1000700011F401951150112311F0D0E0F6CFE4DF17
:10008000DF91CF911F910F910895BA9AB89AC09AB3
:10009000C29A8FEF8FB98AE28DB980EF8EB9089539
:1000A0002DE020BD009719F080B5826080BD0895D5
:1000B000482F42954F7050E09A01220F331F93E072
:1000C000440F551F9A95E1F7240F351F8F70820F4B
:1000D00008951F93CF93DF93EC01EADF182F8D2F44
:1000E000E7DF482F50E09A01E6E0220F331FEA9540
:1000F000E1F7210F311D440F551F440F551FC90152
:10010000841B950BDF91CF911F910895A1E0B0E082
:10011000EBE8F0E0B2C26983DCDF6981860F911DF4
:1001200002C080569A4F97FDFCCF02C0805A95407E
:1001300025E0803A9207D4F72196E2E0BAC28EB960
:100140008BE200C000C000008DB9B29BFECF00C0A2
:1001500000C08DB9769BF5CF00C000C000008FB104
:100160009FEF9FB9B89A0895C29AC29BFECF00C074
:1001700000C00000C09800C000C0C298C09A81E0D2
:100180000895A0E0B0E0E6ECF0E072C2EC01E62EEB
:10019000988181E090FD80E0982F990F8091640014
:1001A0008D7F892B816080936400DEDF882309F4D2
:1001B0005BC0FE2C8E01DD24DA9480916400837094
:1001C00099F1C298F80180818FB980EFB8DFB898B3
:1001D0008EEFB5DF9091640080FF0CC090FF03C0EC
:1001E00081E090E002C082E090E09093650080930F
:1001F00064003AC0892F8570843081F488818160E1
:100200008883109265001092640081E080936400FE
:10021000ABDF8823C1F48AE090E0E7CF0F5F1F4F88
:100220009E7F9093640011C0B89880EF88DFF8013A
:1002300081938F01FF2DF13011F4DFB801C01FB899
:100240008EEF7DDF02C0FE2C8E01FA9409F0B5CF4F
:10025000C098C29AB29BFECF00C000C0C09A00C036
:1002600000C0000081E001C080E0CDB7DEB7E7E06C
:100270001BC2A1E0B0E0EEE3F1E0FFC111C0898351
:10028000DDDEE9E6F8E13197F1F700C00000DCDEE1
:10029000E9E6F8E13197F1F700C00000898181506B
:1002A000882369F72196E2E004C2A1E0B0E0EAE524
:1002B000F1E0E3C111C08983C1DEE3EDF0E33197E2
:1002C000F1F700C00000BDDEE3EDF0E33197F1F798
:1002D00000C0000089818150882369F7B5DE21962E
:1002E000E2E0E7C1A2E0B0E0E7E7F1E0C4C190EDF1
:1002F00099838A8310926500109264008E010F5FCB
:100300001F4FC80162E03DDF8981816089831A82C5
:100310001092650010926400C80162E032DF8A81A9
:100320002296E4E0C4C1A3E0B0E0E8E9F1E0A5C1B1
:1003300090ED99838A836B8310926500109264001C
:10034000CE01019663E01DDF2396E2E0B2C1CF93B8
:1003500081E0C8DFC82F81E060E0E5DFC87181E09F
:1003600009F480E0CF910895CF93DF9380916000EE
:100370009091610062EECADEEC018AE06C2FD3DF5F
:100380006D2F77278BE0CFDF80E0ACDF682F6260D6
:1003900080E0C9DFDF91CF910895CF93C82F80E02F
:1003A000A1DFCC2319F0682F646002C0682F6B7F37
:1003B00080E0B9DFCF910895A1E0B0E0E1EEF1E097
:1003C00056C1789487B3886187BBB998C19A5DDEBE
:1003D00080E068E5A8DF8FE068E3A5DF0BC082E07E
:1003E00064DF8FE996E8A1E081509040A040E1F7FA
:1003F00000C0000083E076DF182F8FE095E1A3E0D6
:1004000081509040A040E1F700C0000083E06ADF27
:10041000811729F30BC082E02CDF8FE996E8A1E079
:1004200081509040A040E1F700C0000083E15ADF16
:10043000182F195F83E1612F76DF83E153DF811786
:1004400051F706DE81E090E03FD1882391F182E010
:1004500090E03AD1682F83E090E0698335D1F82E9F
:1004600084E090E031D1082F85E090E02DD1182F65
:1004700086E090E029D1C82E87E090E025D1E82ED3
:1004800089E0698150DF88E06F2D4DDF86E0602FC5
:100490004ADF85E0612F47DF84E06C2D44DF6E2D5D
:1004A000615F83E040DF81E090E060E015D188E0AB
:1004B000FCDE88E090E008D1182F89E090E004D1BC
:1004C000212F30E0322F2227280F311D3093610079
:1004D0002093600049DF10E002E080E2F82E2091D6
:1004E0006600109266008091620090916300222362
:1004F000A1F060ED0BDE9093610080936000692FA6
:10050000772788E090E0E8D089E090E06091600093
:10051000E3D02ADF81E0C9DEE2CFDBDD6C01809130
:10052000600090916100D5DDC81AD90A90EDC91616
:1005300092E0D9062CF0A0E6BAEFCA0EDB1E09C085
:10054000B1E3CB16BDEFDB0624F4E0EAF5E0CE0E16
:10055000DF1EC6010A9621E08B30910508F020E0ED
:10056000C60101978E31910540F0222369F41130C4
:1005700091F080E012DF11E033C0123029F081E009
:1005800029830BDF12E02981222329F0133031F176
:1005900081E003DF23C0123019F0133009F51EC0CB
:1005A000D7FE04C0D094C194D108D394F6E0CF16FE
:1005B000D1048CF482E05DDE44DD89E698E10197A8
:1005C000F1F700C0000040DDA9E6B8E11197F1F7AE
:1005D00000C0000005C081E04CDE02C039DD13E040
:1005E00033DD81E090E05CDD85B7877E806185BF8B
:1005F00005BBFBBEACDE882339F485B7806285BFBE
:10060000889585B78F7D85BF05BB1BBE80E090E0D8
:1006100047DD3BDD9CDE91E0811190E09093660028
:10062000B19BFECF85E05EDEC82E84E05BDE2C2D24
:1006300030E0322F222790E0282B392B30936300B3
:10064000209362004CCF1F920F920FB60F9211248D
:100650000F900FBE0F901F9018952F923F924F92C0
:100660005F926F927F928F929F92AF92BF92CF9242
:10067000DF92EF92FF920F931F93CF93DF93CDB74B
:10068000DEB7CA1BDB0B0FB6F894DEBF0FBECDBFC3
:1006900009942A88398848885F846E847D848C8494
:1006A0009B84AA84B984C884DF80EE80FD800C819D
:1006B0001B81AA81B981CE0FD11D0FB6F894DEBF80
:1006C0000FBECDBFED010895E199FECF1FBA8EBBDD
:1006D000E09A99278DB30895262FE199FECF1FBA8E
:1006E0008EBBE09A81500DB2021639F01CBA2DBBB8
:1006F0000FB6F894E29AE19A0FBE0895F894FFCFEE
:00000001FF
