:100000000EC01BC0FBC219C018C017C016C015C057
:1000100014C013C012C011C010C00FC00EC01124F4
:100020001FBECFEDCDBF10E0A0E6B0E001C01D9235
:10003000A836B107E1F76FD13CC3E2CFC39AC498A9
:100040000895C49AC398089588B3877E88BB08959D
:100050000F931F93CF93DF9304E0C0E012E00DC035
:10006000DC1710F4EEDF01C0EFDFD150C9F7C00F8D
:1000700011F401951150112311F0D0E0F6CFE4DF17
:10008000DF91CF911F910F910895BA9AB89AC09AB3
:10009000C29A8FEF8FB98AE28DB980EF8EB9089539
:1000A0002DE020BD009719F080B5826080BD0895D5
:1000B0008EB98BE200C000C000008DB9B29BFECFAC
:1000C00000C000C08DB9769BF5CF00C000C0000015
:1000D0008FB19FEF9FB9B89A0895C29AC29BFECF85
:1000E00000C000C00000C09800C000C0C298C09A04
:1000F00081E00895A0E0B0E0EFE7F0E094C2EC0109
:10010000E62E988181E090FD80E0982F990F8091F4
:1001100065008D7F892B816080936500DEDF8823F9
:1001200009F45BC0FE2C8E01DD24DA948091650019
:10013000837099F1C298F80180818FB980EFB8DFA0
:10014000B8988EEFB5DF9091650080FF0CC090FFEE
:1001500003C081E090E002C082E090E090936600EE
:10016000809365003AC0892F8570843081F488813E
:1001700081608883109266001092650081E0809310
:100180006500ABDF8823C1F48AE090E0E7CF0F5F22
:100190001F4F9E7F9093650011C0B89880EF88DF55
:1001A000F80181938F01FF2DF13011F4DFB801C008
:1001B0001FB88EEF7DDF02C0FE2C8E01FA9409F08D
:1001C000B5CFC098C29AB29BFECF00C000C0C09A03
:1001D00000C000C0000081E001C080E0CDB7DEB704
:1001E000E7E03DC2A1E0B0E0E7EFF0E021C211C0DE
:1001F000898324DFE9E6F8E13197F1F700C00000D8
:1002000023DFE9E6F8E13197F1F700C000008981CA
:100210008150882369F72196E2E026C2A1E0B0E090
:10022000E3E1F1E005C211C0898308DFE3EDF0E30B
:100230003197F1F700C0000004DFE3EDF0E3319700
:10024000F1F700C0000089818150882369F7FCDE46
:100250002196E2E009C2A3E0B0E0E0E3F1E0E8C10A
:1002600090ED99838A836B831092660010926500EB
:10027000CE01019663E03EDF2396E2E0F5C1A2E005
:10028000B0E0E4E4F1E0D2C190ED99838A8310926A
:100290006600109265008E010F5F1F4FC80162E07B
:1002A00029DF8981816089831A8210926600109209
:1002B0006500C80162E01EDF8A812296E4E0D2C1B7
:1002C000CF9381E0DCDFC82F81E060E0C4DFC8713C
:1002D00081E009F480E0CF910895CF93C82F8AE0A0
:1002E000BADF8BE06C2FB7DF80E0C9DF682F626078
:1002F00080E0B1DFCF910895CF93C82F80E0BFDFBA
:10030000CC2319F0682F646002C0682F6B7F80E0F7
:10031000A2DFCF910895A1E0B0E0E0E9F1E082C171
:10032000789487B3886187BBB998C19AAEDE80E0C4
:1003300068E591DF8FE068E38EDF0BC082E06EDF5F
:100340008FE996E8A1E081509040A040E1F700C01D
:10035000000083E094DF182F8FE095E1A3E0815047
:100360009040A040E1F700C0000083E088DF8117E3
:1003700029F30BC082E036DF8FE996E8A1E08150D7
:100380009040A040E1F700C0000083E178DF182F23
:10039000195F83E1612F5FDF83E171DF811751F71F
:1003A00057DE81E090E06BD1882391F182E090E00C
:1003B00066D1682F83E090E0698361D1F82E84E0F4
:1003C00090E05DD1082F85E090E059D1182F86E0AC
:1003D00090E055D1E82E87E090E051D1C82E89E019
:1003E000698139DF88E06F2D36DF86E0602F33DFEB
:1003F00085E0612F30DF84E06E2D2DDF6C2D615F95
:1004000083E029DF81E090E060E041D188E006DF11
:1004100088E090E034D18093600089E090E02FD1B3
:10042000809361008AE090E02AD1182F80936200C7
:100430008BE090E024D1682F80936300812F4DDF03
:1004400010E0F2E1EF2E02E0E0E2FE2E8091670084
:100450001092670060916400882331F1862F8A5FD3
:10046000685E8E25862780958071982F9695969543
:10047000969586958695982B691B609360006432EB
:1004800008F0FFCF1092610088E090E000D189E091
:1004900090E060916100FBD080916000609161000C
:1004A0001CDF81E0BBDED2CF862F82958F70282F94
:1004B000220F220F220F880F280F6F70260F30E0B7
:1004C00090916000492F42954F70842F880F880FBC
:1004D000880F440F840F9F70890F90E06C0176E0C5
:1004E000CC0CDD1C7A95E1F740916100C40ED11C63
:1004F000880F991F880F991FC81AD90AC90156E099
:10050000880F991F5A95E1F7220F331F220F331FCF
:10051000821B930BC81AD90AC6010A9621E08B30B8
:10052000910508F020E0C60101978E31910540F059
:10053000222369F4113091F080E0DEDE11E033C057
:10054000123029F081E02983D7DE12E029812223AD
:1005500029F0133031F181E0CFDE23C0123019F0E1
:10056000133009F51EC0D7FE04C0D094C194D10841
:10057000D39496E0C916D1048CF482E033DE61DDB9
:10058000A9E6B8E11197F1F700C000005DDDE9E6EA
:10059000F8E13197F1F700C0000005C081E022DEEC
:1005A00002C056DD13E050DD81E090E079DD85B7D3
:1005B000877E806185BF05BBFBBE82DE882339F460
:1005C00085B7806285BF889585B78F7D85BF05BB60
:1005D0001BBE80E090E064DD58DD72DE91E08111A9
:1005E00090E090936700B19BFECF85E048DE80935A
:1005F000640084E044DE8093650028CF1F920F9250
:100600000FB60F9211240F900FBE0F901F901895E8
:100610002F923F924F925F926F927F928F929F9212
:10062000AF92BF92CF92DF92EF92FF920F931F9300
:10063000CF93DF93CDB7DEB7CA1BDB0B0FB6F894B1
:10064000DEBF0FBECDBF09942A88398848885F84F1
:100650006E847D848C849B84AA84B984C884DF8062
:10066000EE80FD800C811B81AA81B981CE0FD11D46
:100670000FB6F894DEBF0FBECDBFED010895E1992E
:10068000FECF1FBA8EBBE09A99278DB30895262F0F
:10069000E199FECF1FBA8EBBE09A81500DB20216CF
:1006A00039F01CBA2DBB0FB6F894E29AE19A0FBE4E
:0606B0000895F894FFCF4D
:00000001FF
