:100000000EC01BC01DC319C018C017C016C015C034
:1000100014C013C012C011C010C00FC00EC01124F4
:100020001FBECFEDCDBF10E0A0E6B0E001C01D9235
:10003000A736B107E1F7CCD19BC3E2CFC39AC498EE
:100040000895C49AC398089588B3877E88BB08959D
:100050000F931F93CF93DF9304E0C0E012E00DC035
:10006000DC1710F4EEDF01C0EFDFD150C9F7C00F8D
:1000700011F401951150112311F0D0E0F6CFE4DF17
:10008000DF91CF911F910F910895BA9AB89AC09AB3
:10009000C29A8FEF8FB98AE28DB980EF8EB9089539
:1000A0002DE020BD009719F080B5826080BD0895D5
:1000B000482F892F82958F706AE0CCD29F70980F5D
:1000C000892F90E06CE370E0CED29C01842F829562
:1000D0008F706AE0BFD24F70480FC901840F911D25
:1000E0000895CF93DF93EB01E3DFC80FD91F02C060
:1000F000C056DA4FD7FDFCCF02C0C05AD54085E0CC
:10010000C03AD807D4F720E002C0EC972F5FCC3379
:10011000D105D8F74AE0822F642FB7D2382F8C2F21
:10012000B4D2482F66EF96D2C80FCF704295407F69
:10013000C40F832F66EF8ED2280F2F703295307F39
:10014000230F30E0322F2227C9018C0F911DDF9140
:10015000CF9108958EB98BE200C000C000008DB928
:10016000B29BFECF00C000C08DB9769BF5CF00C01A
:1001700000C000008FB19FEF9FB9B89A0895C29A4E
:10018000C29BFECF00C000C00000C09800C000C0ED
:10019000C298C09A81E00895A0E0B0E0E1EDF0E0FF
:1001A0008BC2EC01E62E988181E090FD80E0982FD3
:1001B000990F809164008D7F892B8160809364000A
:1001C000DEDF882309F45BC0FE2C8E01DD24DA9487
:1001D00080916400837099F1C298F80180818FB991
:1001E00080EFB8DFB8988EEFB5DF9091640080FFA4
:1001F0000CC090FF03C081E090E002C082E090E07C
:1002000090936500809364003AC0892F8570843094
:1002100081F4888181608883109265001092640067
:1002200081E080936400ABDF8823C1F48AE090E032
:10023000E7CF0F5F1F4F9E7F9093640011C0B89867
:1002400080EF88DFF80181938F01FF2DF13011F4E9
:10025000DFB801C01FB88EEF7DDF02C0FE2C8E011B
:10026000FA9409F0B5CFC098C29AB29BFECF00C0F5
:1002700000C0C09A00C000C0000081E001C080E062
:10028000CDB7DEB7E7E034C2A1E0B0E0E9E4F1E0E9
:1002900018C211C08983D2DEE9E6F8E13197F1F79F
:1002A00000C00000D1DEE9E6F8E13197F1F700C0C7
:1002B000000089818150882369F72196E2E01DC200
:1002C000A1E0B0E0E5E6F1E0FCC111C08983B6DE53
:1002D000E3EDF0E33197F1F700C00000B2DEE3EDAB
:1002E000F0E33197F1F700C0000089818150882345
:1002F00069F7AADE2196E2E000C2A2E0B0E0E2E8FF
:10030000F1E0DDC190ED99838A831092650010922F
:1003100064008E010F5F1F4FC80162E03DDF8981DD
:10032000816089831A821092650010926400C8016E
:1003300062E032DF8A812296E4E0DDC1A3E0B0E032
:10034000E3EAF1E0BEC190ED99838A836B8310925A
:10035000650010926400CE01019663E01DDF2396D4
:10036000E2E0CBC1CF9381E0C8DFC82F81E060E03D
:10037000E5DFC87181E009F480E0CF910895CF9363
:10038000DF93809160009091610062EE7FEFA9DEC3
:10039000EC018AE06C2FD2DF6D2F77278BE0CEDF68
:1003A00080E0ABDF682F626080E0C8DFDF91CF9133
:1003B0000895CF93C82F80E0A0DFCC2319F0682FD9
:1003C000646002C0682F6B7F80E0B8DFCF91089532
:1003D000A1E0B0E0EDEEF1E06EC1789487B3886102
:1003E00087BBB998C19A51DE80E068E5A7DF8FE04E
:1003F00068E3A4DF0BC082E063DF8FE996E8A1E049
:1004000081509040A040E1F700C0000083E075DF1C
:10041000182F8FE095E1A3E081509040A040E1F7D4
:1004200000C0000083E069DF811729F30BC082E080
:100430002BDF8FE996E8A1E081509040A040E1F7E2
:1004400000C0000083E159DF182F195F83E1612F9D
:1004500075DF83E152DF811751F7FADD81E090E02B
:1004600057D1882391F182E090E052D1682F83E048
:1004700090E069834DD1F82E84E090E049D1082FB7
:1004800085E090E045D1182F86E090E041D1C82E5C
:1004900087E090E03DD1E82E89E069814FDF88E078
:1004A0006F2D4CDF86E0602F49DF85E0612F46DF4E
:1004B00084E06C2D43DF6E2D615F83E03FDF81E0E0
:1004C00090E060E030D188E0FBDE88E090E028D169
:1004D000909361008093600052DF10E002E050E2F0
:1004E000F52E209166001092660080916200909136
:1004F0006300222379F060ED72E0F3DDBC0190939C
:1005000061008093600088E090E01FD138DF81E0D7
:10051000D7DEE7CFCDDD6C01809160009091610066
:10052000C7DDC81AD90A90EDC91692E0D9062CF099
:10053000A0E6BAEFCA0EDB1E09C0B1E3CB16BDEFD1
:10054000DB0624F4E0EAF5E0CE0EDF1EC6010A96D3
:1005500021E08B30910508F020E0C60101978E3133
:10056000910540F0222369F4113091F080E021DF01
:1005700011E033C0123029F081E029831ADF12E044
:100580002981222329F0133031F181E012DF23C0C9
:10059000123019F0133009F51EC0D7FE04C0D094F4
:1005A000C194D108D394F6E0CF16D1048CF482E044
:1005B0006BDE47DD89E698E10197F1F700C00000A6
:1005C00043DDA9E6B8E11197F1F700C0000005C0CE
:1005D00081E05ADE02C03CDD13E036DD81E090E0D0
:1005E0005FDD85B7877E806185BF05BBFBBEBADE58
:1005F000882339F485B7806285BF889585B78F7D5C
:1006000085BF05BB1BBE80E090E04ADD3EDDAADE73
:1006100091E0811190E090936600B19BFECF85E060
:100620006CDEC82E84E069DE2C2D30E0322F2227CC
:1006300090E0282B392B309363002093620051CF38
:100640001F920F920FB60F9211240F900FBE0F90B2
:100650001F901895002480FD060E660F11F08695F8
:10066000D1F7802D08955527002480FF02C0060E83
:10067000571F660F771F6115710521F096958795B5
:10068000009799F7952F802D0895991B79E004C064
:10069000991F961708F0961B881F7A95C9F78095C1
:1006A00008952F923F924F925F926F927F928F9216
:1006B0009F92AF92BF92CF92DF92EF92FF920F93F1
:1006C0001F93CF93DF93CDB7DEB7CA1BDB0B0FB6FB
:1006D000F894DEBF0FBECDBF09942A8839884888B8
:1006E0005F846E847D848C849B84AA84B984C8844E
:1006F000DF80EE80FD800C811B81AA81B981CE0F45
:10070000D11D0FB6F894DEBF0FBECDBFED01089529
:10071000E199FECF1FBA8EBBE09A99278DB3089559
:10072000A8E142E018C0262FE199FECF1FBA8EBB88
:10073000E09A81500DB2021639F01CBA2DBB0FB6EB
:10074000F894E29AE19A0FBE08950196272FECDF04
:10075000EACFA82F862FE82FE199FECF1FBA05C058
:10076000EEBBE09AE3950DB20D924150C8F70895A3
:04077000F894FFCF2B
:00000001FF
