:100000000EC01BC097C119C018C017C016C015C0BC
:1000100014C013C012C011C010C00FC00EC01124F4
:100020001FBECFEDCDBF10E0A0E6B0E001C01D9235
:10003000A536B107E1F788D14DC3E2CF00C000C0BB
:1000400000C000C000C000C000000895B898BA9871
:10005000C098C2980895B89AF1DF1DD00895BA9A51
:10006000EDDFB898EBDFBA98E9DFB89AE7DF13D095
:100070000895082EB89AE2DF802D0DD0882311F064
:1000800002D0F8CF0895BA9AB89AD8DFBA98D6DFD6
:10009000B898D4DF08950894881F01C0880F59F0DC
:1000A000BA9A18F40000B89802C0B89A00C0C6DF27
:1000B000BA98C4DFF3CFBA9AB898C0DFBA98B29BA7
:1000C000FECF8827B09981E0B9DF99270895882766
:1000D00001C081E071E0BA9AB898B0DFBA98AEDF9B
:1000E000B29BFECF8894B0990894771FA0F7BA9A74
:1000F000813011F0B89801C0B89AA0DFBA98B29BCD
:10010000FECF9CDF872F992708952DE020BD009713
:1001100019F080B5826080BD0895482F892F82959F
:100120008F706AE049D29F70980F892F90E06CE33E
:1001300070E04BD29C01842F82958F706AE03CD294
:100140004F70480FC901840F911D0895CF93DF931D
:10015000EB01E3DFC80FD91F02C0C056DA4FD7FD4D
:10016000FCCF02C0C05AD54085E0C03AD807D4F7CA
:1001700020E002C0EC972F5FCC33D105D8F74AE0DE
:10018000822F642F34D2382F8C2F31D2482F66EF34
:1001900013D2C80FCF704295407FC40F832F66EFF4
:1001A0000BD2280F2F703295307F230F30E0322F83
:1001B0002227C9018C0F911DDF91CF910895C39A19
:1001C000C4980895C49AC398089588B3877E88BB5D
:1001D00008950F931F93CF93DF9304E0C0E012E0E4
:1001E0000DC0DC1710F4EEDF01C0EFDFD150C9F70E
:1001F000C00F11F401951150112311F0D0E0F6CF8A
:10020000E4DFDF91CF911F910F910895A1E0B0E05D
:10021000EBE0F1E008C211C08983D1DFE9E6F8E143
:100220003197F1F700C00000D0DFE9E6F8E131973F
:10023000F1F700C0000089818150882369F7219679
:10024000E2E00DC2A1E0B0E0E7E2F1E0ECC111C0F4
:100250008983B5DFE3EDF0E33197F1F700C00000EB
:10026000B1DFE3EDF0E33197F1F700C000008981E1
:100270008150882369F7A9DF2196E2E0F0C1A1E06F
:10028000B0E0E4E4F1E0CEC1182F80EDF2DE812F82
:1002900002DF81EDE4DE1BDF8983F5DE89812196B3
:1002A000E3E0DCC1A1E0B0E0E7E5F1E0BBC1182F7D
:1002B00080ED6983DEDE812FEEDE6981862FEBDE45
:1002C000E2DE2196E3E0CAC1CF9381E0D8DFC82FF8
:1002D00081E060E0E7DFC87181E009F480E0CF9160
:1002E0000895CF93DF93809160009091610062EE5A
:1002F0007FEF2CDFEC018AE06C2FD4DF6D2F7727A6
:100300008BE0D0DF80E0BBDF682F626080E0CADF77
:10031000DF91CF910895CF93C82F80E0B0DFCC2339
:1003200019F0682F646002C0682F6B7F80E0BADF2D
:10033000CF9108951F920F920FB60F9211240F9034
:100340000FBE0F901F901895A1E0B0E0E9EAF1E030
:1003500064C1789487B3886187BBB998C19A76DE07
:1003600080E068E59FDF8FE068E39CDF0BC082E000
:1003700069DF8FE996E8A1E081509040A040E1F765
:1003800000C0000083E07BDF182F8FE095E1A3E041
:1003900081509040A040E1F700C0000083E06FDF93
:1003A000811729F30BC082E031DF8FE996E8A1E0E5
:1003B00081509040A040E1F700C0000083E15FDF82
:1003C000182F195F83E1612F6DDF83E158DF8117FB
:1003D00051F7FFDE80E090E04DD1882391F181E07C
:1003E00090E048D1682F82E090E0698343D1F82EF5
:1003F00083E090E03FD1082F84E090E03BD1182FBC
:1004000085E090E037D1C82E86E090E033D1E82E29
:1004100089E0698147DF88E06F2D44DF86E0602F47
:1004200041DF85E0612F3EDF84E06C2D3BDF6E2DE8
:10043000615F83E037DF80E090E060E026D188E014
:1004400001DF87E090E01ED190936100809360000F
:1004500048DF10E002E050E2F52E20916400109297
:1004600064008091620090916300222379F060ED36
:1004700072E06CDEBC01909361008093600087E0C5
:1004800090E015D12EDF81E0DDDEE7CF46DE6C01A6
:10049000809160009091610040DEC81AD90A90ED09
:1004A000C91692E0D9062CF0A0E6BAEFCA0EDB1E00
:1004B00009C0B1E3CB16BDEFDB0624F4E0EAF5E0BA
:1004C000CE0EDF1EC6010A9621E08B30910508F0A2
:1004D00020E0C60101978E31910540F0222369F496
:1004E000113091F080E017DF11E033C0123029F0B5
:1004F00081E0298310DF12E02981222329F01330C3
:1005000031F181E008DF23C0123019F0133009F512
:100510001EC0D7FE04C0D094C194D108D394F6E095
:10052000CF16D1048CF482E071DE4CDE89E698E1CE
:100530000197F1F700C0000048DEA9E6B8E1119785
:10054000F1F700C0000005C081E060DE02C041DEBE
:1005500013E03BDE81E090E0D8DD85B7877E8061E7
:1005600085BF05BBFBBEB0DE882339F485B780624A
:1005700085BF889585B78F7D85BF05BB1BBE80E095
:1005800090E0C3DD63DDA0DE91E0811190E0909307
:100590006400B19BFECF85E072DEC82E84E06FDE82
:1005A0002C2D30E0322F222790E0282B392B30934E
:1005B00063002093620051CF002480FD060E660F79
:1005C00011F08695D1F7802D08955527002480FFDE
:1005D00002C0060E571F660F771F6115710521F0C7
:1005E00096958795009799F7952F802D0895991BDB
:1005F00079E004C0991F961708F0961B881F7A951A
:10060000C9F7809508952F923F924F925F926F9213
:100610007F928F929F92AF92BF92CF92DF92EF9292
:10062000FF920F931F93CF93DF93CDB7DEB7CA1B13
:10063000DB0B0FB6F894DEBF0FBECDBF09942A883E
:10064000398848885F846E847D848C849B84AA84E6
:10065000B984C884DF80EE80FD800C811B81AA8173
:10066000B981CE0FD11D0FB6F894DEBF0FBECDBF3E
:10067000ED010895E199FECF1FBA8EBBE09A99274C
:100680008DB30895A8E142E018C0262FE199FECF6E
:100690001FBA8EBBE09A81500DB2021639F01CBA17
:1006A0002DBB0FB6F894E29AE19A0FBE0895019619
:1006B000272FECDFEACFA82F862FE82FE199FECF76
:1006C0001FBA05C0EEBBE09AE3950DB20D92415002
:0806D000C8F70895F894FFCF6C
:00000001FF
