:100000000C9434000C94A2000C9446000C9446000E
:100010000C9446000C9446000C9446000C94460048
:100020000C9446000C9446000C9446000C94460038
:100030000C9446000C9446000C9446000C94460028
:100040000C9446000C9446000C9446000C94460018
:100050000C9446000C9446000C9446000C94460008
:100060000C9446000C94460011241FBECFEFD8E03C
:10007000DEBFCDBF11E0A0E0B1E001C01D92A6300F
:10008000B107E1F70E943F010C945B020C94000061
:100090002FE620936400009729F080916400806827
:1000A0008093640008952C9A2A9808952A9A2C988F
:1000B000089585B18B7E85B908951092B90088E4C2
:1000C0008093B80008958093BB0084E88093BC00BF
:1000D0008091BC0087FFFCCF089594EA9093BC0008
:1000E0009091BC0097FFFCCF0E9463000895A1E0AF
:1000F000B0E0EDE7F0E00C941902182F80ED698371
:100100000E946D00812F0E9463006981862F0E94EA
:10011000630084E98093BC002196E3E00C943502EF
:1001200084E98093BC000895009711F084EC01C02D
:1001300084E88093BC008091BC0087FFFCCF809155
:10014000BB0008951F920F920FB60F9211240F90CB
:100150000FBE0F901F901895A2E0B0E0E2EBF0E028
:100160000C941A024A8369830E946D006981862F6C
:100170000E9463004A81842F0E94630084E9809377
:10018000BC002296E2E00C9436020895A1E0B0E0B3
:10019000ECECF0E00C941902182F69830E946D00BA
:1001A0006981862F0E946300812F8F5F0E946D00FE
:1001B00080E090E00E94940094E99093BC00219626
:1001C000E3E00C943502CF93C82F80ED60E00E94ED
:1001D000C600CC2319F0682F646002C0682F6B7FC3
:1001E00080E00E947700CF9108950895EF920F93D9
:1001F0001F93DF93CF9300D0CDB7DEB7982F162F84
:1002000089E0692F2A8349830E94770088E0612F63
:100210000E94770086E04981642F0E94770085E084
:100220002A81622F0E94770084E0602F0E9477006D
:1002300083E06E2D0E9477000F900F90CF91DF9199
:100240001F910F91EF90089580ED61E00E94C6002C
:1002500084FF07C0682F6F7E81E00E94770081E0F5
:10026000089580E0089580910001109200010895A2
:100270000E94240191E0811190E0892F0895A3E06C
:10028000B0E0E5E4F1E00C94160284B1846184B935
:1002900052985A9A0E945D008FE068E30E947700AE
:1002A00082E08093690081E08DBB84E090E00E9451
:1002B0004102882309F43EC085E090E00E9441029B
:1002C000182F86E090E00E944102682F87E090E0BE
:1002D0006B830E944102482F88E090E04A830E948D
:1002E0004102282F89E090E029830E944102082FD3
:1002F000812F6B814A812981EE240E94F60084E0DF
:1003000090E060E00E94490214E010C00E94530097
:100310008FE19EE40197F1F700C000000E945600B3
:10032000EFE1FEE43197F1F700C00000115070F7E3
:100330000E9459008AE090E00E94410280930401EB
:100340008BE090E00E944102809305018AE060EB1F
:100350000E9477008BE065E80E94770080ED60E006
:100360000E94C600682F626080E00E94770080E0F3
:100370000E94E300789411E001C013E00E9459004C
:1003800081E090E00E94480083B7817F846083BF52
:1003900083B7816083BF889583B78E7F83BF80E0FA
:1003A00090E00E9448000E945D000E94380180EDAC
:1003B00065E00E94C6008093030180ED64E00E9426
:1003C000C6008093020180ED63E00E94C600809326
:1003D000010110920001133019F081E00E94E30046
:1003E00002E011E0FF2414C0EF1418F40E9456003C
:1003F00002C00E945900FAE0FA95F1F700C0EA94B1
:1004000099F7F10E11F411950150002309F4B5CFBD
:10041000EE24F5CF2F923F924F925F926F927F9290
:100420008F929F92AF92BF92CF92DF92EF92FF9204
:100430000F931F93CF93DF93CDB7DEB7CA1BDB0BB0
:100440000FB6F894DEBF0FBECDBF09942A88398855
:1004500048885F846E847D848C849B84AA84B9845C
:10046000C884DF80EE80FD800C811B81AA81B98168
:10047000CE0FD11D0FB6F894DEBF0FBECDBFED017C
:100480000895F999FECF92BD81BDF89A992780B55C
:100490000895262FF999FECF92BD81BDF89A019754
:1004A00000B4021639F01FBA20BD0FB6F894FA9ABC
:0A04B000F99A0FBE0895F894FFCFEB
:00000001FF
