:100000000EC01BC0B1C119C018C017C016C015C0A2
:1000100014C013C012C011C010C00FC00EC01124F4
:100020001FBECFEDCDBF10E0A0E6B0E001C01D9235
:10003000A836B107E1F7A2D172C3E2CF00C000C079
:1000400000C000C000C000C000000895B898BA9871
:10005000C098C2980895B89AF1DF1DD00895BA9A51
:10006000EDDFB898EBDFBA98E9DFB89AE7DF13D095
:100070000895082EB89AE2DF802D0DD0882311F064
:1000800002D0F8CF0895BA9AB89AD8DFBA98D6DFD6
:10009000B898D4DF08950894881F01C0880F59F0DC
:1000A000BA9A18F40000B89802C0B89A00C0C6DF27
:1000B000BA98C4DFF3CFBA9AB898C0DFBA98B29BA7
:1000C000FECF8827B09981E0B9DF99270895882766
:1000D00001C081E071E0BA9AB898B0DFBA98AEDF9B
:1000E000B29BFECF8894B0990894771FA0F7BA9A74
:1000F000813011F0B89801C0B89AA0DFBA98B29BCD
:10010000FECF9CDF872F99270895C39AC49808953E
:10011000C49AC398089588B3877E88BB0895482FF2
:10012000892F82958F706AE06CD29F70980F892F0B
:1001300090E06CE370E06ED29C01842F82958F700A
:100140006AE05FD24F70480FC901840F911D089576
:10015000CF93DF93EB01E3DFC80FD91F02C0C05676
:10016000DA4FD7FDFCCF02C0C05AD54085E0C03A77
:10017000D807D4F720E002C0EC972F5FCC33D1052D
:10018000D8F74AE0822F642F57D2382F8C2F54D2C1
:10019000482F66EF36D2C80FCF704295407FC40F0C
:1001A000832F66EF2ED2280F2F703295307F230FCA
:1001B00030E0322F2227C9018C0F911DDF91CF91A2
:1001C00008950F931F93CF93DF9304E0C0E012E0F4
:1001D0000DC0DC1710F49CDF01C09DDFD150C9F7C2
:1001E000C00F11F401951150112311F0D0E0F6CF9A
:1001F00092DFDF91CF911F910F910895A1E0B0E0C0
:10020000E3E0F1E035C211C089837FDFE1EEF4E085
:100210003197F1F700C000007EDFE1EFFBE231979C
:10022000F1F700C0000089818150882369F7219689
:10023000E2E03AC2A1E0B0E0EFE1F1E019C211C0A2
:10024000898363DFE9E6F8E13197F1F700C0000048
:100250005FDFE9E6F8E13197F1F700C0000089813E
:100260008150882369F757DF2196E2E01DC2A1E0A3
:10027000B0E0ECE3F1E0FBC1182F80ED6983F9DE1B
:10028000812F09DF6981862F06DFFDDE2196E3E0FD
:100290000AC23EDF81EE94E00197F1F700C0000052
:1002A0003ADF81EF9BE20197F1F700C0000008956B
:1002B000A1E0B0E0EDE5F1E0DAC1182F80EDD9DE84
:1002C000812FE9DE81EDCBDE02DF8983DCDE8981EF
:1002D0002196E3E0E8C1CF9385E0EADFC82F84E010
:1002E000E7DF2C2F30E0322F222790E0282B392B0C
:1002F0003093630020936200CF910895CF9381E003
:10030000D7DFC82F81E060E0B2DFC87181E009F477
:1003100080E0CF910895CF93DF938091600090911A
:10032000610062EE7FEF14DFEC018AE06C2F9FDF4B
:100330006D2F77278BE09BDF80E0BADF682F62604C
:1003400080E095DFDF91CF910895CF93C82F80E0B3
:10035000AFDFCC2319F0682F646002C0682F6B7F79
:1003600080E085DFCF9108951F920F920FB60F9214
:1003700011240F900FBE0F901F901895A9E0B0E0C8
:10038000E3ECF1E06DC1789487B3886187BBB998DD
:10039000C19A8FE080BD5ADE80E068E568DF8FE0BB
:1003A00068E365DF0BC082E045DF8FE996E8A1E0F6
:1003B00081509040A040E1F700C0000083E078DF6A
:1003C000082F8FE095E1A3E081509040A040E1F735
:1003D00000C0000083E06CDF801729F30BC082E0CF
:1003E0000DDF8FE996E8A1E081509040A040E1F751
:1003F00000C0000083E15CDF082F065583E1602F19
:1004000036DF83E155DF801751F7DBDE81E090E0D6
:1004100065D1882309F18E010F5F1F4FC80162E08B
:1004200070E047E050E04BD180ED23DE83E033DE27
:1004300078E0E72EF12CEC0EFD1E04C0D8018D9162
:100440008D0129DE0E151F05C9F71DDE81E090E044
:1004500060E04FD188E0EEDE3EDF89E090E046D1FB
:10046000909361008093600056DF188662E0D62E7C
:1004700050E2A52E4AE0B42E3FE0C32E80916700E3
:10048000109267000091620010916300882381F050
:10049000C80160ED72E05CDEBC0190936100809366
:1004A000600089E090E037D136DF81E0C3DEE6CF3F
:1004B000809160009091610032DE7C01C8012FDEE6
:1004C000F701E81BF90BCF01F2E0803D9F071CF01C
:1004D000805A954006C02DEF8133920714F4805660
:1004E0009A4F9C01235E3F4F41E02E31310508F0C9
:1004F00040E08C0197FF04C000271127081B190B4F
:1005000001978E31910550F04423A9F4388531309C
:10051000D1F080E01ADF81E0888752C09885923060
:1005200051F081E0498711DFB0926400C09265000C
:10053000A2E0A8874985442331F0B885B330B1F1F2
:1005400081E003DF33C0E885E23019F0E330C1F524
:100550002DC0309164002091650002C0269536952B
:10056000822F90E00817190714F43230B8F730934F
:1005700064002093650080916600982F91509093BD
:1005800066008823E9F40230110514F481E004C008
:100590000230110521F482E031DE7BDE02C081E011
:1005A0002DDE80916400809366000AC0033011053F
:1005B00024F407DEF3E0F88703C06BDE23E028872E
:1005C0009DDE882309F05ACFB19BFECFA4DD85B70D
:1005D000877E806185BFD5BAABBE85B7806285BF97
:1005E000889585B78F7D85BFD5BA1BBE2FDD86DE8A
:1005F00091E0811190E090936700B19BFECF6BDE9C
:100600003DCF002480FD060E660F11F08695D1F7D0
:10061000802D08955527002480FF02C0060E571F25
:10062000660F771F6115710521F0969587950097E4
:1006300099F7952F802D0895991B79E004C0991F93
:10064000961708F0961B881F7A95C9F7809508952C
:100650002F923F924F925F926F927F928F929F92D2
:10066000AF92BF92CF92DF92EF92FF920F931F93C0
:10067000CF93DF93CDB7DEB7CA1BDB0B0FB6F89471
:10068000DEBF0FBECDBF09942A88398848885F84B1
:100690006E847D848C849B84AA84B984C884DF8022
:1006A000EE80FD800C811B81AA81B981CE0FD11D06
:1006B0000FB6F894DEBF0FBECDBFED010895A82F91
:1006C000862FE82FE199FECF1FBA05C0EEBBE09A56
:1006D000E3950DB20D924150C8F70895E199FECF10
:1006E0001FBA8EBBE09A99278DB30895A8E142E026
:1006F000E8CF262FE199FECF1FBA8EBBE09A81503A
:100700000DB2021639F01CBA2DBB0FB6F894E29A5E
:10071000E19A0FBE08950196272FECDFEACFF894F7
:02072000FFCF09
:00000001FF
